{
  "_format": "hh-sol-artifact-1",
  "contractName": "RsaChallenge",
  "sourceName": "contracts/RsaChallenge.sol",
  "abi": [
    {
      "inputs": [
        {
          "internalType": "address",
          "name": "snarkVerifier",
          "type": "address"
        }
      ],
      "stateMutability": "payable",
      "type": "constructor"
    },
    {
      "anonymous": false,
      "inputs": [
        {
          "indexed": false,
          "internalType": "address",
          "name": "user",
          "type": "address"
        },
        {
          "indexed": false,
          "internalType": "uint256",
          "name": "challenge",
          "type": "uint256"
        }
      ],
      "name": "Verified",
      "type": "event"
    },
    {
      "inputs": [
        {
          "internalType": "uint256",
          "name": "",
          "type": "uint256"
        }
      ],
      "name": "challenges",
      "outputs": [
        {
          "internalType": "uint256",
          "name": "",
          "type": "uint256"
        }
      ],
      "stateMutability": "view",
      "type": "function"
    },
    {
      "inputs": [
        {
          "internalType": "uint256",
          "name": "",
          "type": "uint256"
        }
      ],
      "name": "challengesCompleted",
      "outputs": [
        {
          "internalType": "address",
          "name": "",
          "type": "address"
        }
      ],
      "stateMutability": "view",
      "type": "function"
    },
    {
      "inputs": [],
      "name": "challengesCount",
      "outputs": [
        {
          "internalType": "uint256",
          "name": "",
          "type": "uint256"
        }
      ],
      "stateMutability": "view",
      "type": "function"
    },
    {
      "inputs": [
        {
          "internalType": "uint256",
          "name": "challenge",
          "type": "uint256"
        }
      ],
      "name": "newChallenge",
      "outputs": [],
      "stateMutability": "nonpayable",
      "type": "function"
    },
    {
      "inputs": [],
      "name": "owner",
      "outputs": [
        {
          "internalType": "address payable",
          "name": "",
          "type": "address"
        }
      ],
      "stateMutability": "view",
      "type": "function"
    },
    {
      "inputs": [
        {
          "internalType": "uint256",
          "name": "challenge",
          "type": "uint256"
        },
        {
          "internalType": "uint256[8]",
          "name": "proof",
          "type": "uint256[8]"
        }
      ],
      "name": "solveChallenge",
      "outputs": [],
      "stateMutability": "nonpayable",
      "type": "function"
    }
  ],
  "bytecode": "0x6080604052604051620010ab380380620010ab83398181016040528101906100279190610119565b80600160006101000a81548173ffffffffffffffffffffffffffffffffffffffff021916908373ffffffffffffffffffffffffffffffffffffffff160217905550336000806101000a81548173ffffffffffffffffffffffffffffffffffffffff021916908373ffffffffffffffffffffffffffffffffffffffff160217905550600060058190555050610146565b600080fd5b600073ffffffffffffffffffffffffffffffffffffffff82169050919050565b60006100e6826100bb565b9050919050565b6100f6816100db565b811461010157600080fd5b50565b600081519050610113816100ed565b92915050565b60006020828403121561012f5761012e6100b6565b5b600061013d84828501610104565b91505092915050565b610f5580620001566000396000f3fe608060405234801561001057600080fd5b50600436106100625760003560e01c806344dea67114610067578063472b254e1461008557806362075b16146100a157806372e7dcd6146100d15780638da5cb5b146100ed5780638f1d37761461010b575b600080fd5b61006f61013b565b60405161007c91906106a7565b60405180910390f35b61009f600480360381019061009a9190610844565b610141565b005b6100bb60048036038101906100b69190610885565b6104ed565b6040516100c891906108f3565b60405180910390f35b6100eb60048036038101906100e69190610885565b610520565b005b6100f5610652565b604051610102919061092f565b60405180910390f35b61012560048036038101906101209190610885565b610676565b60405161013291906106a7565b60405180910390f35b60055481565b6001600360008481526020019081526020016000205414610197576040517f08c379a000000000000000000000000000000000000000000000000000000000815260040161018e906109a7565b60405180910390fd5b600073ffffffffffffffffffffffffffffffffffffffff166004600084815260200190815260200160002060009054906101000a900473ffffffffffffffffffffffffffffffffffffffff1673ffffffffffffffffffffffffffffffffffffffff1614610239576040517f08c379a000000000000000000000000000000000000000000000000000000000815260040161023090610a13565b60405180910390fd5b600060405180604001604052808360006008811061025a57610259610a33565b5b602002015181526020018360016008811061027857610277610a33565b5b60200201518152509050600060405180604001604052806040518060400160405280866002600881106102ae576102ad610a33565b5b60200201518152602001866003600881106102cc576102cb610a33565b5b602002015181525081526020016040518060400160405280866004600881106102f8576102f7610a33565b5b602002015181526020018660056008811061031657610315610a33565b5b60200201518152508152509050600060405180604001604052808560066008811061034457610343610a33565b5b602002015181526020018560076008811061036257610361610a33565b5b60200201518152509050600160009054906101000a900473ffffffffffffffffffffffffffffffffffffffff1673ffffffffffffffffffffffffffffffffffffffff166343753b4d84848460405180602001604052808b8152506040518563ffffffff1660e01b81526004016103db9493929190610c8f565b602060405180830381865afa1580156103f8573d6000803e3d6000fd5b505050506040513d601f19601f8201168201806040525081019061041c9190610d0e565b61045b576040517f08c379a000000000000000000000000000000000000000000000000000000000815260040161045290610d87565b60405180910390fd5b336004600087815260200190815260200160002060006101000a81548173ffffffffffffffffffffffffffffffffffffffff021916908373ffffffffffffffffffffffffffffffffffffffff1602179055507f7c4bd613345b3aec2140d4c4c96782cda06d72b1a593fbb20a72300354f4c33633866040516104de929190610da7565b60405180910390a15050505050565b60046020528060005260406000206000915054906101000a900473ffffffffffffffffffffffffffffffffffffffff1681565b60008054906101000a900473ffffffffffffffffffffffffffffffffffffffff1673ffffffffffffffffffffffffffffffffffffffff163373ffffffffffffffffffffffffffffffffffffffff16146105ae576040517f08c379a00000000000000000000000000000000000000000000000000000000081526004016105a590610e1c565b60405180910390fd5b6000600360008381526020019081526020016000205414610604576040517f08c379a00000000000000000000000000000000000000000000000000000000081526004016105fb90610e88565b60405180910390fd5b6001600360008381526020019081526020016000208190555080600260006005548152602001908152602001600020819055506005600081548092919061064a90610ed7565b919050555050565b60008054906101000a900473ffffffffffffffffffffffffffffffffffffffff1681565b60026020528060005260406000206000915090505481565b6000819050919050565b6106a18161068e565b82525050565b60006020820190506106bc6000830184610698565b92915050565b6000604051905090565b600080fd5b6106da8161068e565b81146106e557600080fd5b50565b6000813590506106f7816106d1565b92915050565b600080fd5b6000601f19601f8301169050919050565b7f4e487b7100000000000000000000000000000000000000000000000000000000600052604160045260246000fd5b61074b82610702565b810181811067ffffffffffffffff8211171561076a57610769610713565b5b80604052505050565b600061077d6106c2565b90506107898282610742565b919050565b600067ffffffffffffffff8211156107a9576107a8610713565b5b602082029050919050565b600080fd5b60006107cc6107c78461078e565b610773565b905080602084028301858111156107e6576107e56107b4565b5b835b8181101561080f57806107fb88826106e8565b8452602084019350506020810190506107e8565b5050509392505050565b600082601f83011261082e5761082d6106fd565b5b600861083b8482856107b9565b91505092915050565b600080610120838503121561085c5761085b6106cc565b5b600061086a858286016106e8565b925050602061087b85828601610819565b9150509250929050565b60006020828403121561089b5761089a6106cc565b5b60006108a9848285016106e8565b91505092915050565b600073ffffffffffffffffffffffffffffffffffffffff82169050919050565b60006108dd826108b2565b9050919050565b6108ed816108d2565b82525050565b600060208201905061090860008301846108e4565b92915050565b6000610919826108b2565b9050919050565b6109298161090e565b82525050565b60006020820190506109446000830184610920565b92915050565b600082825260208201905092915050565b7f4368616c6c656e676520646f6573206e6f742065786973740000000000000000600082015250565b600061099160188361094a565b915061099c8261095b565b602082019050919050565b600060208201905081810360008301526109c081610984565b9050919050565b7f4368616c6c656e676520616c726561647920736f6c7665640000000000000000600082015250565b60006109fd60188361094a565b9150610a08826109c7565b602082019050919050565b60006020820190508181036000830152610a2c816109f0565b9050919050565b7f4e487b7100000000000000000000000000000000000000000000000000000000600052603260045260246000fd5b600060029050919050565b600081905092915050565b6000819050919050565b610a8b8161068e565b82525050565b6000610a9d8383610a82565b60208301905092915050565b6000602082019050919050565b610abf81610a62565b610ac98184610a6d565b9250610ad482610a78565b8060005b83811015610b05578151610aec8782610a91565b9650610af783610aa9565b925050600181019050610ad8565b505050505050565b600060029050919050565b600081905092915050565b6000819050919050565b600081905092915050565b610b4181610a62565b610b4b8184610b2d565b9250610b5682610a78565b8060005b83811015610b87578151610b6e8782610a91565b9650610b7983610aa9565b925050600181019050610b5a565b505050505050565b6000610b9b8383610b38565b60408301905092915050565b6000602082019050919050565b610bbd81610b0d565b610bc78184610b18565b9250610bd282610b23565b8060005b83811015610c03578151610bea8782610b8f565b9650610bf583610ba7565b925050600181019050610bd6565b505050505050565b600060019050919050565b600081905092915050565b6000819050919050565b6000602082019050919050565b610c4181610c0b565b610c4b8184610c16565b9250610c5682610c21565b8060005b83811015610c87578151610c6e8782610a91565b9650610c7983610c2b565b925050600181019050610c5a565b505050505050565b600061012082019050610ca56000830187610ab6565b610cb26040830186610bb4565b610cbf60c0830185610ab6565b610ccd610100830184610c38565b95945050505050565b60008115159050919050565b610ceb81610cd6565b8114610cf657600080fd5b50565b600081519050610d0881610ce2565b92915050565b600060208284031215610d2457610d236106cc565b5b6000610d3284828501610cf9565b91505092915050565b7f496e76616c69642070726f6f6600000000000000000000000000000000000000600082015250565b6000610d71600d8361094a565b9150610d7c82610d3b565b602082019050919050565b60006020820190508181036000830152610da081610d64565b9050919050565b6000604082019050610dbc60008301856108e4565b610dc96020830184610698565b9392505050565b7f596f75206172656e277420746865206f776e6572000000000000000000000000600082015250565b6000610e0660148361094a565b9150610e1182610dd0565b602082019050919050565b60006020820190508181036000830152610e3581610df9565b9050919050565b7f4368616c6c656e676520616c7265616479206578697374730000000000000000600082015250565b6000610e7260188361094a565b9150610e7d82610e3c565b602082019050919050565b60006020820190508181036000830152610ea181610e65565b9050919050565b7f4e487b7100000000000000000000000000000000000000000000000000000000600052601160045260246000fd5b6000610ee28261068e565b91507fffffffffffffffffffffffffffffffffffffffffffffffffffffffffffffffff8203610f1457610f13610ea8565b5b60018201905091905056fea2646970667358221220265990a2ca44547e24a8dfcff14fe9b0be66ea7a0000c980613602cb438be5d464736f6c63430008180033",
  "linkReferences": {},
  "deployedLinkReferences": {}
}